{
  "contractName": "MyContract",
  "abi": [
    {
      "constant": true,
      "inputs": [
        {
          "name": "",
          "type": "bytes32"
        }
      ],
      "name": "resultReceived",
      "outputs": [
        {
          "name": "",
          "type": "bool"
        }
      ],
      "payable": false,
      "stateMutability": "view",
      "type": "function"
    },
    {
      "constant": true,
      "inputs": [
        {
          "name": "",
          "type": "bytes32"
        }
      ],
      "name": "swell",
      "outputs": [
        {
          "name": "",
          "type": "int256"
        }
      ],
      "payable": false,
      "stateMutability": "view",
      "type": "function"
    },
    {
      "inputs": [
        {
          "name": "_link",
          "type": "address"
        },
        {
          "name": "_oracle",
          "type": "address"
        },
        {
          "name": "_jobId",
          "type": "bytes32"
        },
        {
          "name": "_oraclePaymentAmount",
          "type": "uint256"
        }
      ],
      "payable": false,
      "stateMutability": "nonpayable",
      "type": "constructor"
    },
    {
      "anonymous": false,
      "inputs": [
        {
          "indexed": true,
          "name": "id",
          "type": "bytes32"
        }
      ],
      "name": "ChainlinkRequested",
      "type": "event"
    },
    {
      "anonymous": false,
      "inputs": [
        {
          "indexed": true,
          "name": "id",
          "type": "bytes32"
        }
      ],
      "name": "ChainlinkFulfilled",
      "type": "event"
    },
    {
      "anonymous": false,
      "inputs": [
        {
          "indexed": true,
          "name": "id",
          "type": "bytes32"
        }
      ],
      "name": "ChainlinkCancelled",
      "type": "event"
    },
    {
      "constant": false,
      "inputs": [
        {
          "name": "query",
          "type": "string"
        }
      ],
      "name": "makeRequest",
      "outputs": [
        {
          "name": "requestId",
          "type": "bytes32"
        }
      ],
      "payable": false,
      "stateMutability": "nonpayable",
      "type": "function"
    },
    {
      "constant": true,
      "inputs": [
        {
          "name": "_requestId",
          "type": "bytes32"
        }
      ],
      "name": "getResult",
      "outputs": [
        {
          "name": "result",
          "type": "int256"
        }
      ],
      "payable": false,
      "stateMutability": "view",
      "type": "function"
    },
    {
      "constant": true,
      "inputs": [
        {
          "name": "_requestId",
          "type": "bytes32"
        }
      ],
      "name": "getResultReceived",
      "outputs": [
        {
          "name": "received",
          "type": "bool"
        }
      ],
      "payable": false,
      "stateMutability": "view",
      "type": "function"
    },
    {
      "constant": false,
      "inputs": [
        {
          "name": "_requestId",
          "type": "bytes32"
        },
        {
          "name": "_result",
          "type": "int256"
        }
      ],
      "name": "fulfill",
      "outputs": [],
      "payable": false,
      "stateMutability": "nonpayable",
      "type": "function"
    }
  ],
  "bytecode": "0x6080604052600160045534801561001557600080fd5b506040516080806112f68339810180604052810190808051906020019092919080519060200190929190805190602001909291908051906020019092919050505061006e846100a1640100000000026401000000009004565b610086836100e5640100000000026401000000009004565b81600781600019169055508060068190555050505050610129565b80600260006101000a81548173ffffffffffffffffffffffffffffffffffffffff021916908373ffffffffffffffffffffffffffffffffffffffff16021790555050565b80600360006101000a81548173ffffffffffffffffffffffffffffffffffffffff021916908373ffffffffffffffffffffffffffffffffffffffff16021790555050565b6111be806101386000396000f300608060405260043610610078576000357c0100000000000000000000000000000000000000000000000000000000900463ffffffff16806332b206c01461007d5780636154bf37146100c65780638e9dc3801461010f578063add4c78414610166578063bda71d04146101ab578063ed458024146101e6575b600080fd5b34801561008957600080fd5b506100ac600480360381019080803560001916906020019092919050505061022b565b604051808215151515815260200191505060405180910390f35b3480156100d257600080fd5b506100f5600480360381019080803560001916906020019092919050505061025d565b604051808215151515815260200191505060405180910390f35b34801561011b57600080fd5b5061014860048036038101908080359060200190820180359060200191909192939192939050505061027d565b60405180826000191660001916815260200191505060405180910390f35b34801561017257600080fd5b5061019560048036038101908080356000191690602001909291905050506103f8565b6040518082815260200191505060405180910390f35b3480156101b757600080fd5b506101e460048036038101908080356000191690602001909291908035906020019092919050505061041d565b005b3480156101f257600080fd5b5061021560048036038101908080356000191690602001909291905050506105ea565b6040518082815260200191505060405180910390f35b600060086000836000191660001916815260200190815260200160002060009054906101000a900460ff169050919050565b60086020528060005260406000206000915054906101000a900460ff1681565b60006102876110f0565b6102b76007543063bda71d047c010000000000000000000000000000000000000000000000000000000002610602565b90506103356040805190810160405280600181526020017f710000000000000000000000000000000000000000000000000000000000000081525085858080601f016020809104026020016040519081016040528093929190818152602001838380828437820191505050505050836106339092919063ffffffff16565b6103db6040805190810160405280600881526020017f636f707950617468000000000000000000000000000000000000000000000000815250606060405190810160405280602581526020017f646174612e776561746865722e362e686f75726c792e322e7377656c6c48656981526020017f6768745f6d000000000000000000000000000000000000000000000000000000815250836106339092919063ffffffff16565b6103ef6103e6610666565b82600654610690565b91505092915050565b6000600960008360001916600019168152602001908152602001600020549050919050565b8160056000826000191660001916815260200190815260200160002060009054906101000a900473ffffffffffffffffffffffffffffffffffffffff1673ffffffffffffffffffffffffffffffffffffffff163373ffffffffffffffffffffffffffffffffffffffff16141515610522576040517f08c379a00000000000000000000000000000000000000000000000000000000081526004018080602001828103825260288152602001807f536f75726365206d75737420626520746865206f7261636c65206f662074686581526020017f207265717565737400000000000000000000000000000000000000000000000081525060400191505060405180910390fd5b60056000826000191660001916815260200190815260200160002060006101000a81549073ffffffffffffffffffffffffffffffffffffffff021916905580600019167f7cc135e0cebb02c3480ae5d74d377283180a2601f8f644edf7987b009316c63a60405160405180910390a28160096000856000191660001916815260200190815260200160002081905550600160086000856000191660001916815260200190815260200160002060006101000a81548160ff021916908315150217905550505050565b60096020528060005260406000206000915090505481565b61060a6110f0565b6106126110f0565b61062985858584610a1c909392919063ffffffff16565b9150509392505050565b61064a828460800151610ad690919063ffffffff16565b610661818460800151610ad690919063ffffffff16565b505050565b6000600360009054906101000a900473ffffffffffffffffffffffffffffffffffffffff16905090565b600030600454604051602001808373ffffffffffffffffffffffffffffffffffffffff1673ffffffffffffffffffffffffffffffffffffffff166c01000000000000000000000000028152601401828152602001925050506040516020818303038152906040526040518082805190602001908083835b60208310151561072c5780518252602082019150602081019050602083039250610707565b6001836020036101000a038019825116818451168082178552505050505050905001915050604051809103902090506004548360600181815250508360056000836000191660001916815260200190815260200160002060006101000a81548173ffffffffffffffffffffffffffffffffffffffff021916908373ffffffffffffffffffffffffffffffffffffffff16021790555080600019167fb5e6e01e79f91267dc17b4e6314d5d4d03593d2ceee0fbb452b750bd70ea5af960405160405180910390a2600260009054906101000a900473ffffffffffffffffffffffffffffffffffffffff1673ffffffffffffffffffffffffffffffffffffffff16634000aea0858461083b87610afb565b6040518463ffffffff167c0100000000000000000000000000000000000000000000000000000000028152600401808473ffffffffffffffffffffffffffffffffffffffff1673ffffffffffffffffffffffffffffffffffffffff16815260200183815260200180602001828103825283818151815260200191508051906020019080838360005b838110156108de5780820151818401526020810190506108c3565b50505050905090810190601f16801561090b5780820380516001836020036101000a031916815260200191505b50945050505050602060405180830381600087803b15801561092c57600080fd5b505af1158015610940573d6000803e3d6000fd5b505050506040513d602081101561095657600080fd5b81019080805190602001909291905050501515610a01576040517f08c379a00000000000000000000000000000000000000000000000000000000081526004018080602001828103825260238152602001807f756e61626c6520746f207472616e73666572416e6443616c6c20746f206f726181526020017f636c65000000000000000000000000000000000000000000000000000000000081525060400191505060405180910390fd5b60016004600082825401925050819055508090509392505050565b610a246110f0565b610a348560800151610100610d26565b50838560000190600019169081600019168152505082856020019073ffffffffffffffffffffffffffffffffffffffff16908173ffffffffffffffffffffffffffffffffffffffff16815250508185604001907bffffffffffffffffffffffffffffffffffffffffffffffffffffffff191690817bffffffffffffffffffffffffffffffffffffffffffffffffffffffff191681525050849050949350505050565b610ae38260038351610d80565b610af68183610ede90919063ffffffff16565b505050565b6060600360009054906101000a900473ffffffffffffffffffffffffffffffffffffffff1673ffffffffffffffffffffffffffffffffffffffff16634042994690507c01000000000000000000000000000000000000000000000000000000000260008084600001518560200151866040015187606001516001896080015160000151604051602401808973ffffffffffffffffffffffffffffffffffffffff1673ffffffffffffffffffffffffffffffffffffffff16815260200188815260200187600019166000191681526020018673ffffffffffffffffffffffffffffffffffffffff1673ffffffffffffffffffffffffffffffffffffffff168152602001857bffffffffffffffffffffffffffffffffffffffffffffffffffffffff19167bffffffffffffffffffffffffffffffffffffffffffffffffffffffff1916815260200184815260200183815260200180602001828103825283818151815260200191508051906020019080838360005b83811015610c89578082015181840152602081019050610c6e565b50505050905090810190601f168015610cb65780820380516001836020036101000a031916815260200191505b509950505050505050505050604051602081830303815290604052907bffffffffffffffffffffffffffffffffffffffffffffffffffffffff19166020820180517bffffffffffffffffffffffffffffffffffffffffffffffffffffffff83818316178352505050509050919050565b610d2e61115e565b6000602083811515610d3c57fe5b06141515610d5957602082811515610d5057fe5b06602003820191505b81836020018181525050604051808452600081528281016020016040525082905092915050565b601781111515610db257610dac8160058460ff169060020a0260ff161784610f0090919063ffffffff16565b50610ed9565b60ff81111515610df957610ddc601860058460ff169060020a021784610f0090919063ffffffff16565b50610df381600185610f209092919063ffffffff16565b50610ed8565b61ffff81111515610e4157610e24601960058460ff169060020a021784610f0090919063ffffffff16565b50610e3b81600285610f209092919063ffffffff16565b50610ed7565b63ffffffff81111515610e8b57610e6e601a60058460ff169060020a021784610f0090919063ffffffff16565b50610e8581600485610f209092919063ffffffff16565b50610ed6565b67ffffffffffffffff81111515610ed557610ebc601b60058460ff169060020a021784610f0090919063ffffffff16565b50610ed381600885610f209092919063ffffffff16565b505b5b5b5b5b505050565b610ee661115e565b610ef883846000015151848551610f42565b905092915050565b610f0861115e565b610f188384600001515184610fff565b905092915050565b610f2861115e565b610f3984856000015151858561104f565b90509392505050565b610f4a61115e565b600080600085518511151515610f5f57600080fd5b87602001518588011115610f8a57610f89886002610f838b602001518b8a016110b0565b026110cc565b5b875180518860208301019450808988011115610fa65788870182525b60208801935050505b602085101515610fd45781518352602083019250602082019150602085039450610faf565b6001856020036101000a03905080198251168184511681811785525050879350505050949350505050565b61100761115e565b836020015183101515611026576110258460028660200151026110cc565b5b8351805160208583010184815381861415611042576001820183525b5050508390509392505050565b61105761115e565b60008560200151858401111561107757611076866002878601026110cc565b5b6001836101000a03905085518386820101858319825116178152815185880111156110a25784870182525b505085915050949350505050565b6000818311156110c2578290506110c6565b8190505b92915050565b6060826000015190506110df8383610d26565b506110ea8382610ede565b50505050565b60c06040519081016040528060008019168152602001600073ffffffffffffffffffffffffffffffffffffffff16815260200160007bffffffffffffffffffffffffffffffffffffffffffffffffffffffff1916815260200160008152602001611158611178565b81525090565b604080519081016040528060608152602001600081525090565b6040805190810160405280606081526020016000815250905600a165627a7a72305820ef463ccb49d084d91a8e2e0fab9a97d45961930f4b9186bb470fcfe39718a0f60029",
  "source": "pragma solidity 0.4.24;\n\nimport \"../node_modules/chainlink/contracts/ChainlinkClient.sol\";\n\ncontract MyContract is ChainlinkClient{\n    uint256 private oraclePaymentAmount;\n    bytes32 private jobId;\n\n    mapping (bytes32 => bool) public resultReceived;\n    mapping (bytes32 => int256) public swell;\n\n    constructor(\n        address _link,\n        address _oracle,\n        bytes32 _jobId,\n        uint256 _oraclePaymentAmount\n        )\n    public\n    {\n        setChainlinkToken(_link);\n        setChainlinkOracle(_oracle);\n        jobId = _jobId;\n        oraclePaymentAmount = _oraclePaymentAmount;\n    }\n\n    function makeRequest(string query) external returns (bytes32 requestId)\n    {\n        Chainlink.Request memory req = buildChainlinkRequest(jobId, this, this.fulfill.selector);\n        req.add(\"q\", query);\n        req.add(\"copyPath\", \"data.weather.6.hourly.2.swellHeight_m\");\n        requestId = sendChainlinkRequestTo(chainlinkOracleAddress(), req, oraclePaymentAmount);\n    }\n\n    function getResult(bytes32 _requestId) public view returns (int256 result) {\n        result = swell[_requestId];\n    }\n\n     function getResultReceived(bytes32 _requestId) public view returns (bool received) {\n        received = resultReceived[_requestId];\n    }\n\n    function fulfill(bytes32 _requestId, int256 _result)\n    public\n    recordChainlinkFulfillment(_requestId)\n    {\n        swell[_requestId] = _result;\n        resultReceived[_requestId] = true;\n    }\n}\n",
  "sourcePath": "/Users/chrisbuonocore/personal/hackathons/honey19/surfcontract/contracts/MyContract.sol",
  "compiler": {
    "name": "solc",
    "version": "0.4.24+commit.e67f0147.Emscripten.clang"
  },
  "schemaVersion": "3.0.19",
  "updatedAt": "2019-12-11T05:40:24.099Z",
  "networkType": "ethereum",
  "devdoc": {
    "methods": {}
  },
  "userdoc": {
    "methods": {}
  }
}