{
  "contractName": "MyContract",
  "abi": [
    {
      "constant": true,
      "inputs": [],
      "name": "resultReceived",
      "outputs": [
        {
          "name": "",
          "type": "bool"
        }
      ],
      "payable": false,
      "stateMutability": "view",
      "type": "function"
    },
    {
      "constant": true,
      "inputs": [],
      "name": "swell",
      "outputs": [
        {
          "name": "",
          "type": "bytes32"
        }
      ],
      "payable": false,
      "stateMutability": "view",
      "type": "function"
    },
    {
      "inputs": [
        {
          "name": "_link",
          "type": "address"
        },
        {
          "name": "_oracle",
          "type": "address"
        },
        {
          "name": "_jobId",
          "type": "bytes32"
        },
        {
          "name": "_oraclePaymentAmount",
          "type": "uint256"
        }
      ],
      "payable": false,
      "stateMutability": "nonpayable",
      "type": "constructor"
    },
    {
      "anonymous": false,
      "inputs": [
        {
          "indexed": true,
          "name": "id",
          "type": "bytes32"
        }
      ],
      "name": "ChainlinkRequested",
      "type": "event"
    },
    {
      "anonymous": false,
      "inputs": [
        {
          "indexed": true,
          "name": "id",
          "type": "bytes32"
        }
      ],
      "name": "ChainlinkFulfilled",
      "type": "event"
    },
    {
      "anonymous": false,
      "inputs": [
        {
          "indexed": true,
          "name": "id",
          "type": "bytes32"
        }
      ],
      "name": "ChainlinkCancelled",
      "type": "event"
    },
    {
      "constant": false,
      "inputs": [
        {
          "name": "query",
          "type": "string"
        }
      ],
      "name": "makeRequest",
      "outputs": [
        {
          "name": "requestId",
          "type": "bytes32"
        }
      ],
      "payable": false,
      "stateMutability": "nonpayable",
      "type": "function"
    },
    {
      "constant": false,
      "inputs": [],
      "name": "resetResult",
      "outputs": [],
      "payable": false,
      "stateMutability": "nonpayable",
      "type": "function"
    },
    {
      "constant": false,
      "inputs": [
        {
          "name": "_requestId",
          "type": "bytes32"
        },
        {
          "name": "_result",
          "type": "bytes32"
        }
      ],
      "name": "fulfill",
      "outputs": [],
      "payable": false,
      "stateMutability": "nonpayable",
      "type": "function"
    }
  ],
  "bytecode": "0x6080604052600160045534801561001557600080fd5b506040516080806111d18339810180604052810190808051906020019092919080519060200190929190805190602001909291908051906020019092919050505061006e846100a1640100000000026401000000009004565b610086836100e5640100000000026401000000009004565b81600781600019169055508060068190555050505050610129565b80600260006101000a81548173ffffffffffffffffffffffffffffffffffffffff021916908373ffffffffffffffffffffffffffffffffffffffff16021790555050565b80600360006101000a81548173ffffffffffffffffffffffffffffffffffffffff021916908373ffffffffffffffffffffffffffffffffffffffff16021790555050565b611099806101386000396000f30060806040526004361061006d576000357c0100000000000000000000000000000000000000000000000000000000900463ffffffff168063042f2b6514610072578063456cf2f2146100b15780634cd38cc2146100c85780638e9dc380146100f7578063bbbae31c1461014e575b600080fd5b34801561007e57600080fd5b506100af60048036038101908080356000191690602001909291908035600019169060200190929190505050610181565b005b3480156100bd57600080fd5b506100c6610320565b005b3480156100d457600080fd5b506100dd610349565b604051808215151515815260200191505060405180910390f35b34801561010357600080fd5b5061013060048036038101908080359060200190820180359060200191909192939192939050505061035c565b60405180826000191660001916815260200191505060405180910390f35b34801561015a57600080fd5b506101636104d7565b60405180826000191660001916815260200191505060405180910390f35b8160056000826000191660001916815260200190815260200160002060009054906101000a900473ffffffffffffffffffffffffffffffffffffffff1673ffffffffffffffffffffffffffffffffffffffff163373ffffffffffffffffffffffffffffffffffffffff16141515610286576040517f08c379a00000000000000000000000000000000000000000000000000000000081526004018080602001828103825260288152602001807f536f75726365206d75737420626520746865206f7261636c65206f662074686581526020017f207265717565737400000000000000000000000000000000000000000000000081525060400191505060405180910390fd5b60056000826000191660001916815260200190815260200160002060006101000a81549073ffffffffffffffffffffffffffffffffffffffff021916905580600019167f7cc135e0cebb02c3480ae5d74d377283180a2601f8f644edf7987b009316c63a60405160405180910390a26001600860006101000a81548160ff0219169083151502179055508160098160001916905550505050565b6000600860006101000a81548160ff021916908315150217905550600060098160001916905550565b600860009054906101000a900460ff1681565b6000610366610fcb565b6103966007543063042f2b657c0100000000000000000000000000000000000000000000000000000000026104dd565b90506104146040805190810160405280600181526020017f710000000000000000000000000000000000000000000000000000000000000081525085858080601f0160208091040260200160405190810160405280939291908181526020018383808284378201915050505050508361050e9092919063ffffffff16565b6104ba6040805190810160405280600881526020017f636f707950617468000000000000000000000000000000000000000000000000815250606060405190810160405280602581526020017f646174612e776561746865722e362e686f75726c792e322e7377656c6c48656981526020017f6768745f6d0000000000000000000000000000000000000000000000000000008152508361050e9092919063ffffffff16565b6104ce6104c5610541565b8260065461056b565b91505092915050565b60095481565b6104e5610fcb565b6104ed610fcb565b610504858585846108f7909392919063ffffffff16565b9150509392505050565b6105258284608001516109b190919063ffffffff16565b61053c8184608001516109b190919063ffffffff16565b505050565b6000600360009054906101000a900473ffffffffffffffffffffffffffffffffffffffff16905090565b600030600454604051602001808373ffffffffffffffffffffffffffffffffffffffff1673ffffffffffffffffffffffffffffffffffffffff166c01000000000000000000000000028152601401828152602001925050506040516020818303038152906040526040518082805190602001908083835b60208310151561060757805182526020820191506020810190506020830392506105e2565b6001836020036101000a038019825116818451168082178552505050505050905001915050604051809103902090506004548360600181815250508360056000836000191660001916815260200190815260200160002060006101000a81548173ffffffffffffffffffffffffffffffffffffffff021916908373ffffffffffffffffffffffffffffffffffffffff16021790555080600019167fb5e6e01e79f91267dc17b4e6314d5d4d03593d2ceee0fbb452b750bd70ea5af960405160405180910390a2600260009054906101000a900473ffffffffffffffffffffffffffffffffffffffff1673ffffffffffffffffffffffffffffffffffffffff16634000aea08584610716876109d6565b6040518463ffffffff167c0100000000000000000000000000000000000000000000000000000000028152600401808473ffffffffffffffffffffffffffffffffffffffff1673ffffffffffffffffffffffffffffffffffffffff16815260200183815260200180602001828103825283818151815260200191508051906020019080838360005b838110156107b957808201518184015260208101905061079e565b50505050905090810190601f1680156107e65780820380516001836020036101000a031916815260200191505b50945050505050602060405180830381600087803b15801561080757600080fd5b505af115801561081b573d6000803e3d6000fd5b505050506040513d602081101561083157600080fd5b810190808051906020019092919050505015156108dc576040517f08c379a00000000000000000000000000000000000000000000000000000000081526004018080602001828103825260238152602001807f756e61626c6520746f207472616e73666572416e6443616c6c20746f206f726181526020017f636c65000000000000000000000000000000000000000000000000000000000081525060400191505060405180910390fd5b60016004600082825401925050819055508090509392505050565b6108ff610fcb565b61090f8560800151610100610c01565b50838560000190600019169081600019168152505082856020019073ffffffffffffffffffffffffffffffffffffffff16908173ffffffffffffffffffffffffffffffffffffffff16815250508185604001907bffffffffffffffffffffffffffffffffffffffffffffffffffffffff191690817bffffffffffffffffffffffffffffffffffffffffffffffffffffffff191681525050849050949350505050565b6109be8260038351610c5b565b6109d18183610db990919063ffffffff16565b505050565b6060600360009054906101000a900473ffffffffffffffffffffffffffffffffffffffff1673ffffffffffffffffffffffffffffffffffffffff16634042994690507c01000000000000000000000000000000000000000000000000000000000260008084600001518560200151866040015187606001516001896080015160000151604051602401808973ffffffffffffffffffffffffffffffffffffffff1673ffffffffffffffffffffffffffffffffffffffff16815260200188815260200187600019166000191681526020018673ffffffffffffffffffffffffffffffffffffffff1673ffffffffffffffffffffffffffffffffffffffff168152602001857bffffffffffffffffffffffffffffffffffffffffffffffffffffffff19167bffffffffffffffffffffffffffffffffffffffffffffffffffffffff1916815260200184815260200183815260200180602001828103825283818151815260200191508051906020019080838360005b83811015610b64578082015181840152602081019050610b49565b50505050905090810190601f168015610b915780820380516001836020036101000a031916815260200191505b509950505050505050505050604051602081830303815290604052907bffffffffffffffffffffffffffffffffffffffffffffffffffffffff19166020820180517bffffffffffffffffffffffffffffffffffffffffffffffffffffffff83818316178352505050509050919050565b610c09611039565b6000602083811515610c1757fe5b06141515610c3457602082811515610c2b57fe5b06602003820191505b81836020018181525050604051808452600081528281016020016040525082905092915050565b601781111515610c8d57610c878160058460ff169060020a0260ff161784610ddb90919063ffffffff16565b50610db4565b60ff81111515610cd457610cb7601860058460ff169060020a021784610ddb90919063ffffffff16565b50610cce81600185610dfb9092919063ffffffff16565b50610db3565b61ffff81111515610d1c57610cff601960058460ff169060020a021784610ddb90919063ffffffff16565b50610d1681600285610dfb9092919063ffffffff16565b50610db2565b63ffffffff81111515610d6657610d49601a60058460ff169060020a021784610ddb90919063ffffffff16565b50610d6081600485610dfb9092919063ffffffff16565b50610db1565b67ffffffffffffffff81111515610db057610d97601b60058460ff169060020a021784610ddb90919063ffffffff16565b50610dae81600885610dfb9092919063ffffffff16565b505b5b5b5b5b505050565b610dc1611039565b610dd383846000015151848551610e1d565b905092915050565b610de3611039565b610df38384600001515184610eda565b905092915050565b610e03611039565b610e14848560000151518585610f2a565b90509392505050565b610e25611039565b600080600085518511151515610e3a57600080fd5b87602001518588011115610e6557610e64886002610e5e8b602001518b8a01610f8b565b02610fa7565b5b875180518860208301019450808988011115610e815788870182525b60208801935050505b602085101515610eaf5781518352602083019250602082019150602085039450610e8a565b6001856020036101000a03905080198251168184511681811785525050879350505050949350505050565b610ee2611039565b836020015183101515610f0157610f00846002866020015102610fa7565b5b8351805160208583010184815381861415610f1d576001820183525b5050508390509392505050565b610f32611039565b600085602001518584011115610f5257610f5186600287860102610fa7565b5b6001836101000a0390508551838682010185831982511617815281518588011115610f7d5784870182525b505085915050949350505050565b600081831115610f9d57829050610fa1565b8190505b92915050565b606082600001519050610fba8383610c01565b50610fc58382610db9565b50505050565b60c06040519081016040528060008019168152602001600073ffffffffffffffffffffffffffffffffffffffff16815260200160007bffffffffffffffffffffffffffffffffffffffffffffffffffffffff1916815260200160008152602001611033611053565b81525090565b604080519081016040528060608152602001600081525090565b6040805190810160405280606081526020016000815250905600a165627a7a72305820fff91e95bb693d21a7873d3528d4a99362da16fb2eb66abe09905e2690fb918d0029",
  "source": "pragma solidity 0.4.24;\n\nimport \"../node_modules/chainlink/contracts/ChainlinkClient.sol\";\n\ncontract MyContract is ChainlinkClient{\n    uint256 private oraclePaymentAmount;\n    bytes32 private jobId;\n\n    bool public resultReceived;\n    bytes32 public swell;\n\n    constructor(\n        address _link,\n        address _oracle,\n        bytes32 _jobId,\n        uint256 _oraclePaymentAmount\n        )\n    public\n    {\n        setChainlinkToken(_link);\n        setChainlinkOracle(_oracle);\n        jobId = _jobId;\n        oraclePaymentAmount = _oraclePaymentAmount;\n    }\n\n    function makeRequest(string query) external returns (bytes32 requestId)\n    {\n        Chainlink.Request memory req = buildChainlinkRequest(jobId, this, this.fulfill.selector);\n        req.add(\"q\", query);\n        req.add(\"copyPath\", \"data.weather.6.hourly.2.swellHeight_m\");\n        requestId = sendChainlinkRequestTo(chainlinkOracleAddress(), req, oraclePaymentAmount);\n    }\n\n    function resetResult() external\n    {\n        resultReceived = false;\n        swell = \"\";\n    }\n\n    function fulfill(bytes32 _requestId, bytes32 _result)\n    public\n    recordChainlinkFulfillment(_requestId)\n    {\n        resultReceived = true;\n        swell = _result;\n    }\n}\n",
  "sourcePath": "/Users/chrisbuonocore/personal/hackathons/honey19/surfcontract/contracts/MyContract.sol",
  "compiler": {
    "name": "solc",
    "version": "0.4.24+commit.e67f0147.Emscripten.clang"
  },
  "schemaVersion": "3.0.19",
  "updatedAt": "2019-12-11T05:29:39.916Z",
  "networkType": "ethereum",
  "devdoc": {
    "methods": {}
  },
  "userdoc": {
    "methods": {}
  }
}